{"contracts/Contract.sol":{"GitHubStakeContract":{"abi":[{"inputs":[],"stateMutability":"nonpayable","type":"constructor"},{"anonymous":false,"inputs":[{"indexed":false,"internalType":"string","name":"repoName","type":"string"},{"indexed":false,"internalType":"uint256","name":"amount","type":"uint256"}],"name":"DonationReceived","type":"event"},{"anonymous":false,"inputs":[{"indexed":false,"internalType":"string","name":"repoName","type":"string"}],"name":"RepositoryRegistered","type":"event"},{"anonymous":false,"inputs":[{"indexed":false,"internalType":"string","name":"repoName","type":"string"},{"indexed":false,"internalType":"string","name":"issueName","type":"string"},{"indexed":false,"internalType":"uint256","name":"amount","type":"uint256"}],"name":"StakeAssigned","type":"event"},{"anonymous":false,"inputs":[{"indexed":false,"internalType":"string","name":"repoName","type":"string"},{"indexed":false,"internalType":"string","name":"issueName","type":"string"},{"indexed":false,"internalType":"address[]","name":"resolvers","type":"address[]"},{"indexed":false,"internalType":"uint256[]","name":"distributions","type":"uint256[]"}],"name":"StakeDistributed","type":"event"},{"inputs":[{"internalType":"string","name":"repoName","type":"string"},{"internalType":"string","name":"issueName","type":"string"},{"internalType":"uint256","name":"amount","type":"uint256"}],"name":"assignStakeToIssue","outputs":[],"stateMutability":"nonpayable","type":"function"},{"inputs":[{"internalType":"string","name":"repoName","type":"string"},{"internalType":"string","name":"issueName","type":"string"},{"internalType":"address[]","name":"resolvers","type":"address[]"},{"internalType":"uint256[]","name":"distributions","type":"uint256[]"}],"name":"distributeStakeToResolvers","outputs":[],"stateMutability":"nonpayable","type":"function"},{"inputs":[{"internalType":"string","name":"repoName","type":"string"}],"name":"donateToRepository","outputs":[],"stateMutability":"payable","type":"function"},{"inputs":[],"name":"owner","outputs":[{"internalType":"address","name":"","type":"address"}],"stateMutability":"view","type":"function"},{"inputs":[{"internalType":"string","name":"repoName","type":"string"}],"name":"registerRepository","outputs":[],"stateMutability":"nonpayable","type":"function"},{"inputs":[{"internalType":"string","name":"","type":"string"}],"name":"repositories","outputs":[{"internalType":"uint256","name":"totalStake","type":"uint256"}],"stateMutability":"view","type":"function"},{"stateMutability":"payable","type":"receive"}],"evm":{"bytecode":{"linkReferences":{},"object":"6080604052348015600f57600080fd5b50600080546001600160a01b03191633179055610b37806100316000396000f3fe6080604052600436106100595760003560e01c806333a0cfbb1461006557806345df58ab146100875780638da5cb5b146100a7578063b089e53a146100e4578063bbb776281461012a578063bca400921461014a57600080fd5b3661006057005b600080fd5b34801561007157600080fd5b506100856100803660046106af565b61015d565b005b34801561009357600080fd5b506100856100a2366004610786565b6103bd565b3480156100b357600080fd5b506000546100c7906001600160a01b031681565b6040516001600160a01b0390911681526020015b60405180910390f35b3480156100f057600080fd5b5061011c6100ff366004610815565b805160208183018101805160018252928201919093012091525481565b6040519081526020016100db565b34801561013657600080fd5b506100856101453660046108ce565b61047b565b6100856101583660046108ce565b61054f565b8281146101c55760405162461bcd60e51b815260206004820152602b60248201527f5265736f6c7665727320616e6420646973747269627574696f6e73206c656e6760448201526a0e8d040dad2e6dac2e8c6d60ab1b60648201526084015b60405180910390fd5b6000600189896040516101d9929190610910565b9081526020016040518091039020905060008160010188886040516101ff929190610910565b90815260200160405180910390205490506000805b8481101561024a5785858281811061022e5761022e610920565b9050602002013582610240919061094c565b9150600101610214565b50818111156102a75760405162461bcd60e51b815260206004820152602360248201527f446973747269627574696f6e20657863656564732061737369676e6564207374604482015262616b6560e81b60648201526084016101bc565b80836001018a8a6040516102bc929190610910565b908152602001604051809103902060008282546102d99190610965565b90915550600090505b8681101561036a578787828181106102fc576102fc610920565b90506020020160208101906103119190610994565b6001600160a01b03166108fc87878481811061032f5761032f610920565b905060200201359081150290604051600060405180830381858888f19350505050158015610361573d6000803e3d6000fd5b506001016102e2565b507f9f54e0bb5528320c9f02b3669a18f01b27a6b237a6f321c4744026b8cee5f9e58b8b8b8b8b8b8b8b6040516103a89897969594939291906109df565b60405180910390a15050505050505050505050565b6000600186866040516103d1929190610910565b90815260200160405180910390209050818160000160008282546103f59190610965565b9250508190555081816001018585604051610411929190610910565b9081526020016040518091039020600082825461042e919061094c565b90915550506040517ffff40a3c61bd1f3c8e34dbe7028c5404a7f49ead6445a4c92865d2bfdbf961dd9061046b9088908890889088908890610a87565b60405180910390a1505050505050565b6001828260405161048d929190610910565b90815260405190819003602001902054156104ea5760405162461bcd60e51b815260206004820152601d60248201527f5265706f7369746f727920616c7265616479207265676973746572656400000060448201526064016101bc565b6000600183836040516104fe929190610910565b9081526040519081900360200181206000815591507f13ba76422d4746395f788849383f7e7074514babf446c4291eee6c86ce55caf6906105429085908590610ac1565b60405180910390a1505050565b600034116105aa5760405162461bcd60e51b815260206004820152602260248201527f446f6e6174696f6e206d7573742062652067726561746572207468616e207a65604482015261726f60f01b60648201526084016101bc565b34600183836040516105bd929190610910565b908152602001604051809103902060000160008282546105dd919061094c565b90915550506040517ef79f60084fd2b2fc97daffa19b748a4dec75b1c281bac18ef320d90de1db9d9061061590849084903490610add565b60405180910390a15050565b60008083601f84011261063357600080fd5b50813567ffffffffffffffff81111561064b57600080fd5b60208301915083602082850101111561066357600080fd5b9250929050565b60008083601f84011261067c57600080fd5b50813567ffffffffffffffff81111561069457600080fd5b6020830191508360208260051b850101111561066357600080fd5b6000806000806000806000806080898b0312156106cb57600080fd5b883567ffffffffffffffff8111156106e257600080fd5b6106ee8b828c01610621565b909950975050602089013567ffffffffffffffff81111561070e57600080fd5b61071a8b828c01610621565b909750955050604089013567ffffffffffffffff81111561073a57600080fd5b6107468b828c0161066a565b909550935050606089013567ffffffffffffffff81111561076657600080fd5b6107728b828c0161066a565b999c989b5096995094979396929594505050565b60008060008060006060868803121561079e57600080fd5b853567ffffffffffffffff8111156107b557600080fd5b6107c188828901610621565b909650945050602086013567ffffffffffffffff8111156107e157600080fd5b6107ed88828901610621565b96999598509660400135949350505050565b634e487b7160e01b600052604160045260246000fd5b60006020828403121561082757600080fd5b813567ffffffffffffffff81111561083e57600080fd5b8201601f8101841361084f57600080fd5b803567ffffffffffffffff811115610869576108696107ff565b604051601f8201601f19908116603f0116810167ffffffffffffffff81118282101715610898576108986107ff565b6040528181528282016020018610156108b057600080fd5b81602084016020830137600091810160200191909152949350505050565b600080602083850312156108e157600080fd5b823567ffffffffffffffff8111156108f857600080fd5b61090485828601610621565b90969095509350505050565b8183823760009101908152919050565b634e487b7160e01b600052603260045260246000fd5b634e487b7160e01b600052601160045260246000fd5b8082018082111561095f5761095f610936565b92915050565b8181038181111561095f5761095f610936565b80356001600160a01b038116811461098f57600080fd5b919050565b6000602082840312156109a657600080fd5b6109af82610978565b9392505050565b81835281816020850137506000828201602090810191909152601f909101601f19169091010190565b6080815260006109f3608083018a8c6109b6565b8281036020840152610a0681898b6109b6565b838103604085015286815287915060200160005b87811015610a48576001600160a01b03610a3384610978565b16825260209283019290910190600101610a1a565b5083810360608501528481526001600160fb1b03851115610a6857600080fd5b8460051b915081866020830137016020019a9950505050505050505050565b606081526000610a9b6060830187896109b6565b8281036020840152610aae8186886109b6565b9150508260408301529695505050505050565b602081526000610ad56020830184866109b6565b949350505050565b604081526000610af16040830185876109b6565b905082602083015294935050505056fea26469706673582212203cb72cf5846bb0381f5c61cc31ca04da3b144b18d2b73b194c1ef8917d228e3364736f6c634300081b0033","opcodes":"PUSH1 0x80 PUSH1 0x40 MSTORE CALLVALUE DUP1 ISZERO PUSH1 0xF JUMPI PUSH1 0x0 DUP1 REVERT JUMPDEST POP PUSH1 0x0 DUP1 SLOAD PUSH1 0x1 PUSH1 0x1 PUSH1 0xA0 SHL SUB NOT AND CALLER OR SWAP1 SSTORE PUSH2 0xB37 DUP1 PUSH2 0x31 PUSH1 0x0 CODECOPY PUSH1 0x0 RETURN INVALID PUSH1 0x80 PUSH1 0x40 MSTORE PUSH1 0x4 CALLDATASIZE LT PUSH2 0x59 JUMPI PUSH1 0x0 CALLDATALOAD PUSH1 0xE0 SHR DUP1 PUSH4 0x33A0CFBB EQ PUSH2 0x65 JUMPI DUP1 PUSH4 0x45DF58AB EQ PUSH2 0x87 JUMPI DUP1 PUSH4 0x8DA5CB5B EQ PUSH2 0xA7 JUMPI DUP1 PUSH4 0xB089E53A EQ PUSH2 0xE4 JUMPI DUP1 PUSH4 0xBBB77628 EQ PUSH2 0x12A JUMPI DUP1 PUSH4 0xBCA40092 EQ PUSH2 0x14A JUMPI PUSH1 0x0 DUP1 REVERT JUMPDEST CALLDATASIZE PUSH2 0x60 JUMPI STOP JUMPDEST PUSH1 0x0 DUP1 REVERT JUMPDEST CALLVALUE DUP1 ISZERO PUSH2 0x71 JUMPI PUSH1 0x0 DUP1 REVERT JUMPDEST POP PUSH2 0x85 PUSH2 0x80 CALLDATASIZE PUSH1 0x4 PUSH2 0x6AF JUMP JUMPDEST PUSH2 0x15D JUMP JUMPDEST STOP JUMPDEST CALLVALUE DUP1 ISZERO PUSH2 0x93 JUMPI PUSH1 0x0 DUP1 REVERT JUMPDEST POP PUSH2 0x85 PUSH2 0xA2 CALLDATASIZE PUSH1 0x4 PUSH2 0x786 JUMP JUMPDEST PUSH2 0x3BD JUMP JUMPDEST CALLVALUE DUP1 ISZERO PUSH2 0xB3 JUMPI PUSH1 0x0 DUP1 REVERT JUMPDEST POP PUSH1 0x0 SLOAD PUSH2 0xC7 SWAP1 PUSH1 0x1 PUSH1 0x1 PUSH1 0xA0 SHL SUB AND DUP2 JUMP JUMPDEST PUSH1 0x40 MLOAD PUSH1 0x1 PUSH1 0x1 PUSH1 0xA0 SHL SUB SWAP1 SWAP2 AND DUP2 MSTORE PUSH1 0x20 ADD JUMPDEST PUSH1 0x40 MLOAD DUP1 SWAP2 SUB SWAP1 RETURN JUMPDEST CALLVALUE DUP1 ISZERO PUSH2 0xF0 JUMPI PUSH1 0x0 DUP1 REVERT JUMPDEST POP PUSH2 0x11C PUSH2 0xFF CALLDATASIZE PUSH1 0x4 PUSH2 0x815 JUMP JUMPDEST DUP1 MLOAD PUSH1 0x20 DUP2 DUP4 ADD DUP2 ADD DUP1 MLOAD PUSH1 0x1 DUP3 MSTORE SWAP3 DUP3 ADD SWAP2 SWAP1 SWAP4 ADD KECCAK256 SWAP2 MSTORE SLOAD DUP2 JUMP JUMPDEST PUSH1 0x40 MLOAD SWAP1 DUP2 MSTORE PUSH1 0x20 ADD PUSH2 0xDB JUMP JUMPDEST CALLVALUE DUP1 ISZERO PUSH2 0x136 JUMPI PUSH1 0x0 DUP1 REVERT JUMPDEST POP PUSH2 0x85 PUSH2 0x145 CALLDATASIZE PUSH1 0x4 PUSH2 0x8CE JUMP JUMPDEST PUSH2 0x47B JUMP JUMPDEST PUSH2 0x85 PUSH2 0x158 CALLDATASIZE PUSH1 0x4 PUSH2 0x8CE JUMP JUMPDEST PUSH2 0x54F JUMP JUMPDEST DUP3 DUP2 EQ PUSH2 0x1C5 JUMPI PUSH1 0x40 MLOAD PUSH3 0x461BCD PUSH1 0xE5 SHL DUP2 MSTORE PUSH1 0x20 PUSH1 0x4 DUP3 ADD MSTORE PUSH1 0x2B PUSH1 0x24 DUP3 ADD MSTORE PUSH32 0x5265736F6C7665727320616E6420646973747269627574696F6E73206C656E67 PUSH1 0x44 DUP3 ADD MSTORE PUSH11 0xE8D040DAD2E6DAC2E8C6D PUSH1 0xAB SHL PUSH1 0x64 DUP3 ADD MSTORE PUSH1 0x84 ADD JUMPDEST PUSH1 0x40 MLOAD DUP1 SWAP2 SUB SWAP1 REVERT JUMPDEST PUSH1 0x0 PUSH1 0x1 DUP10 DUP10 PUSH1 0x40 MLOAD PUSH2 0x1D9 SWAP3 SWAP2 SWAP1 PUSH2 0x910 JUMP JUMPDEST SWAP1 DUP2 MSTORE PUSH1 0x20 ADD PUSH1 0x40 MLOAD DUP1 SWAP2 SUB SWAP1 KECCAK256 SWAP1 POP PUSH1 0x0 DUP2 PUSH1 0x1 ADD DUP9 DUP9 PUSH1 0x40 MLOAD PUSH2 0x1FF SWAP3 SWAP2 SWAP1 PUSH2 0x910 JUMP JUMPDEST SWAP1 DUP2 MSTORE PUSH1 0x20 ADD PUSH1 0x40 MLOAD DUP1 SWAP2 SUB SWAP1 KECCAK256 SLOAD SWAP1 POP PUSH1 0x0 DUP1 JUMPDEST DUP5 DUP2 LT ISZERO PUSH2 0x24A JUMPI DUP6 DUP6 DUP3 DUP2 DUP2 LT PUSH2 0x22E JUMPI PUSH2 0x22E PUSH2 0x920 JUMP JUMPDEST SWAP1 POP PUSH1 0x20 MUL ADD CALLDATALOAD DUP3 PUSH2 0x240 SWAP2 SWAP1 PUSH2 0x94C JUMP JUMPDEST SWAP2 POP PUSH1 0x1 ADD PUSH2 0x214 JUMP JUMPDEST POP DUP2 DUP2 GT ISZERO PUSH2 0x2A7 JUMPI PUSH1 0x40 MLOAD PUSH3 0x461BCD PUSH1 0xE5 SHL DUP2 MSTORE PUSH1 0x20 PUSH1 0x4 DUP3 ADD MSTORE PUSH1 0x23 PUSH1 0x24 DUP3 ADD MSTORE PUSH32 0x446973747269627574696F6E20657863656564732061737369676E6564207374 PUSH1 0x44 DUP3 ADD MSTORE PUSH3 0x616B65 PUSH1 0xE8 SHL PUSH1 0x64 DUP3 ADD MSTORE PUSH1 0x84 ADD PUSH2 0x1BC JUMP JUMPDEST DUP1 DUP4 PUSH1 0x1 ADD DUP11 DUP11 PUSH1 0x40 MLOAD PUSH2 0x2BC SWAP3 SWAP2 SWAP1 PUSH2 0x910 JUMP JUMPDEST SWAP1 DUP2 MSTORE PUSH1 0x20 ADD PUSH1 0x40 MLOAD DUP1 SWAP2 SUB SWAP1 KECCAK256 PUSH1 0x0 DUP3 DUP3 SLOAD PUSH2 0x2D9 SWAP2 SWAP1 PUSH2 0x965 JUMP JUMPDEST SWAP1 SWAP2 SSTORE POP PUSH1 0x0 SWAP1 POP JUMPDEST DUP7 DUP2 LT ISZERO PUSH2 0x36A JUMPI DUP8 DUP8 DUP3 DUP2 DUP2 LT PUSH2 0x2FC JUMPI PUSH2 0x2FC PUSH2 0x920 JUMP JUMPDEST SWAP1 POP PUSH1 0x20 MUL ADD PUSH1 0x20 DUP2 ADD SWAP1 PUSH2 0x311 SWAP2 SWAP1 PUSH2 0x994 JUMP JUMPDEST PUSH1 0x1 PUSH1 0x1 PUSH1 0xA0 SHL SUB AND PUSH2 0x8FC DUP8 DUP8 DUP5 DUP2 DUP2 LT PUSH2 0x32F JUMPI PUSH2 0x32F PUSH2 0x920 JUMP JUMPDEST SWAP1 POP PUSH1 0x20 MUL ADD CALLDATALOAD SWAP1 DUP2 ISZERO MUL SWAP1 PUSH1 0x40 MLOAD PUSH1 0x0 PUSH1 0x40 MLOAD DUP1 DUP4 SUB DUP2 DUP6 DUP9 DUP9 CALL SWAP4 POP POP POP POP ISZERO DUP1 ISZERO PUSH2 0x361 JUMPI RETURNDATASIZE PUSH1 0x0 DUP1 RETURNDATACOPY RETURNDATASIZE PUSH1 0x0 REVERT JUMPDEST POP PUSH1 0x1 ADD PUSH2 0x2E2 JUMP JUMPDEST POP PUSH32 0x9F54E0BB5528320C9F02B3669A18F01B27A6B237A6F321C4744026B8CEE5F9E5 DUP12 DUP12 DUP12 DUP12 DUP12 DUP12 DUP12 DUP12 PUSH1 0x40 MLOAD PUSH2 0x3A8 SWAP9 SWAP8 SWAP7 SWAP6 SWAP5 SWAP4 SWAP3 SWAP2 SWAP1 PUSH2 0x9DF JUMP JUMPDEST PUSH1 0x40 MLOAD DUP1 SWAP2 SUB SWAP1 LOG1 POP POP POP POP POP POP POP POP POP POP POP JUMP JUMPDEST PUSH1 0x0 PUSH1 0x1 DUP7 DUP7 PUSH1 0x40 MLOAD PUSH2 0x3D1 SWAP3 SWAP2 SWAP1 PUSH2 0x910 JUMP JUMPDEST SWAP1 DUP2 MSTORE PUSH1 0x20 ADD PUSH1 0x40 MLOAD DUP1 SWAP2 SUB SWAP1 KECCAK256 SWAP1 POP DUP2 DUP2 PUSH1 0x0 ADD PUSH1 0x0 DUP3 DUP3 SLOAD PUSH2 0x3F5 SWAP2 SWAP1 PUSH2 0x965 JUMP JUMPDEST SWAP3 POP POP DUP2 SWAP1 SSTORE POP DUP2 DUP2 PUSH1 0x1 ADD DUP6 DUP6 PUSH1 0x40 MLOAD PUSH2 0x411 SWAP3 SWAP2 SWAP1 PUSH2 0x910 JUMP JUMPDEST SWAP1 DUP2 MSTORE PUSH1 0x20 ADD PUSH1 0x40 MLOAD DUP1 SWAP2 SUB SWAP1 KECCAK256 PUSH1 0x0 DUP3 DUP3 SLOAD PUSH2 0x42E SWAP2 SWAP1 PUSH2 0x94C JUMP JUMPDEST SWAP1 SWAP2 SSTORE POP POP PUSH1 0x40 MLOAD PUSH32 0xFFF40A3C61BD1F3C8E34DBE7028C5404A7F49EAD6445A4C92865D2BFDBF961DD SWAP1 PUSH2 0x46B SWAP1 DUP9 SWAP1 DUP9 SWAP1 DUP9 SWAP1 DUP9 SWAP1 DUP9 SWAP1 PUSH2 0xA87 JUMP JUMPDEST PUSH1 0x40 MLOAD DUP1 SWAP2 SUB SWAP1 LOG1 POP POP POP POP POP POP JUMP JUMPDEST PUSH1 0x1 DUP3 DUP3 PUSH1 0x40 MLOAD PUSH2 0x48D SWAP3 SWAP2 SWAP1 PUSH2 0x910 JUMP JUMPDEST SWAP1 DUP2 MSTORE PUSH1 0x40 MLOAD SWAP1 DUP2 SWAP1 SUB PUSH1 0x20 ADD SWAP1 KECCAK256 SLOAD ISZERO PUSH2 0x4EA JUMPI PUSH1 0x40 MLOAD PUSH3 0x461BCD PUSH1 0xE5 SHL DUP2 MSTORE PUSH1 0x20 PUSH1 0x4 DUP3 ADD MSTORE PUSH1 0x1D PUSH1 0x24 DUP3 ADD MSTORE PUSH32 0x5265706F7369746F727920616C72656164792072656769737465726564000000 PUSH1 0x44 DUP3 ADD MSTORE PUSH1 0x64 ADD PUSH2 0x1BC JUMP JUMPDEST PUSH1 0x0 PUSH1 0x1 DUP4 DUP4 PUSH1 0x40 MLOAD PUSH2 0x4FE SWAP3 SWAP2 SWAP1 PUSH2 0x910 JUMP JUMPDEST SWAP1 DUP2 MSTORE PUSH1 0x40 MLOAD SWAP1 DUP2 SWAP1 SUB PUSH1 0x20 ADD DUP2 KECCAK256 PUSH1 0x0 DUP2 SSTORE SWAP2 POP PUSH32 0x13BA76422D4746395F788849383F7E7074514BABF446C4291EEE6C86CE55CAF6 SWAP1 PUSH2 0x542 SWAP1 DUP6 SWAP1 DUP6 SWAP1 PUSH2 0xAC1 JUMP JUMPDEST PUSH1 0x40 MLOAD DUP1 SWAP2 SUB SWAP1 LOG1 POP POP POP JUMP JUMPDEST PUSH1 0x0 CALLVALUE GT PUSH2 0x5AA JUMPI PUSH1 0x40 MLOAD PUSH3 0x461BCD PUSH1 0xE5 SHL DUP2 MSTORE PUSH1 0x20 PUSH1 0x4 DUP3 ADD MSTORE PUSH1 0x22 PUSH1 0x24 DUP3 ADD MSTORE PUSH32 0x446F6E6174696F6E206D7573742062652067726561746572207468616E207A65 PUSH1 0x44 DUP3 ADD MSTORE PUSH2 0x726F PUSH1 0xF0 SHL PUSH1 0x64 DUP3 ADD MSTORE PUSH1 0x84 ADD PUSH2 0x1BC JUMP JUMPDEST CALLVALUE PUSH1 0x1 DUP4 DUP4 PUSH1 0x40 MLOAD PUSH2 0x5BD SWAP3 SWAP2 SWAP1 PUSH2 0x910 JUMP JUMPDEST SWAP1 DUP2 MSTORE PUSH1 0x20 ADD PUSH1 0x40 MLOAD DUP1 SWAP2 SUB SWAP1 KECCAK256 PUSH1 0x0 ADD PUSH1 0x0 DUP3 DUP3 SLOAD PUSH2 0x5DD SWAP2 SWAP1 PUSH2 0x94C JUMP JUMPDEST SWAP1 SWAP2 SSTORE POP POP PUSH1 0x40 MLOAD PUSH31 0xF79F60084FD2B2FC97DAFFA19B748A4DEC75B1C281BAC18EF320D90DE1DB9D SWAP1 PUSH2 0x615 SWAP1 DUP5 SWAP1 DUP5 SWAP1 CALLVALUE SWAP1 PUSH2 0xADD JUMP JUMPDEST PUSH1 0x40 MLOAD DUP1 SWAP2 SUB SWAP1 LOG1 POP POP JUMP JUMPDEST PUSH1 0x0 DUP1 DUP4 PUSH1 0x1F DUP5 ADD SLT PUSH2 0x633 JUMPI PUSH1 0x0 DUP1 REVERT JUMPDEST POP DUP2 CALLDATALOAD PUSH8 0xFFFFFFFFFFFFFFFF DUP2 GT ISZERO PUSH2 0x64B JUMPI PUSH1 0x0 DUP1 REVERT JUMPDEST PUSH1 0x20 DUP4 ADD SWAP2 POP DUP4 PUSH1 0x20 DUP3 DUP6 ADD ADD GT ISZERO PUSH2 0x663 JUMPI PUSH1 0x0 DUP1 REVERT JUMPDEST SWAP3 POP SWAP3 SWAP1 POP JUMP JUMPDEST PUSH1 0x0 DUP1 DUP4 PUSH1 0x1F DUP5 ADD SLT PUSH2 0x67C JUMPI PUSH1 0x0 DUP1 REVERT JUMPDEST POP DUP2 CALLDATALOAD PUSH8 0xFFFFFFFFFFFFFFFF DUP2 GT ISZERO PUSH2 0x694 JUMPI PUSH1 0x0 DUP1 REVERT JUMPDEST PUSH1 0x20 DUP4 ADD SWAP2 POP DUP4 PUSH1 0x20 DUP3 PUSH1 0x5 SHL DUP6 ADD ADD GT ISZERO PUSH2 0x663 JUMPI PUSH1 0x0 DUP1 REVERT JUMPDEST PUSH1 0x0 DUP1 PUSH1 0x0 DUP1 PUSH1 0x0 DUP1 PUSH1 0x0 DUP1 PUSH1 0x80 DUP10 DUP12 SUB SLT ISZERO PUSH2 0x6CB JUMPI PUSH1 0x0 DUP1 REVERT JUMPDEST DUP9 CALLDATALOAD PUSH8 0xFFFFFFFFFFFFFFFF DUP2 GT ISZERO PUSH2 0x6E2 JUMPI PUSH1 0x0 DUP1 REVERT JUMPDEST PUSH2 0x6EE DUP12 DUP3 DUP13 ADD PUSH2 0x621 JUMP JUMPDEST SWAP1 SWAP10 POP SWAP8 POP POP PUSH1 0x20 DUP10 ADD CALLDATALOAD PUSH8 0xFFFFFFFFFFFFFFFF DUP2 GT ISZERO PUSH2 0x70E JUMPI PUSH1 0x0 DUP1 REVERT JUMPDEST PUSH2 0x71A DUP12 DUP3 DUP13 ADD PUSH2 0x621 JUMP JUMPDEST SWAP1 SWAP8 POP SWAP6 POP POP PUSH1 0x40 DUP10 ADD CALLDATALOAD PUSH8 0xFFFFFFFFFFFFFFFF DUP2 GT ISZERO PUSH2 0x73A JUMPI PUSH1 0x0 DUP1 REVERT JUMPDEST PUSH2 0x746 DUP12 DUP3 DUP13 ADD PUSH2 0x66A JUMP JUMPDEST SWAP1 SWAP6 POP SWAP4 POP POP PUSH1 0x60 DUP10 ADD CALLDATALOAD PUSH8 0xFFFFFFFFFFFFFFFF DUP2 GT ISZERO PUSH2 0x766 JUMPI PUSH1 0x0 DUP1 REVERT JUMPDEST PUSH2 0x772 DUP12 DUP3 DUP13 ADD PUSH2 0x66A JUMP JUMPDEST SWAP10 SWAP13 SWAP9 SWAP12 POP SWAP7 SWAP10 POP SWAP5 SWAP8 SWAP4 SWAP7 SWAP3 SWAP6 SWAP5 POP POP POP JUMP JUMPDEST PUSH1 0x0 DUP1 PUSH1 0x0 DUP1 PUSH1 0x0 PUSH1 0x60 DUP7 DUP9 SUB SLT ISZERO PUSH2 0x79E JUMPI PUSH1 0x0 DUP1 REVERT JUMPDEST DUP6 CALLDATALOAD PUSH8 0xFFFFFFFFFFFFFFFF DUP2 GT ISZERO PUSH2 0x7B5 JUMPI PUSH1 0x0 DUP1 REVERT JUMPDEST PUSH2 0x7C1 DUP9 DUP3 DUP10 ADD PUSH2 0x621 JUMP JUMPDEST SWAP1 SWAP7 POP SWAP5 POP POP PUSH1 0x20 DUP7 ADD CALLDATALOAD PUSH8 0xFFFFFFFFFFFFFFFF DUP2 GT ISZERO PUSH2 0x7E1 JUMPI PUSH1 0x0 DUP1 REVERT JUMPDEST PUSH2 0x7ED DUP9 DUP3 DUP10 ADD PUSH2 0x621 JUMP JUMPDEST SWAP7 SWAP10 SWAP6 SWAP9 POP SWAP7 PUSH1 0x40 ADD CALLDATALOAD SWAP5 SWAP4 POP POP POP POP JUMP JUMPDEST PUSH4 0x4E487B71 PUSH1 0xE0 SHL PUSH1 0x0 MSTORE PUSH1 0x41 PUSH1 0x4 MSTORE PUSH1 0x24 PUSH1 0x0 REVERT JUMPDEST PUSH1 0x0 PUSH1 0x20 DUP3 DUP5 SUB SLT ISZERO PUSH2 0x827 JUMPI PUSH1 0x0 DUP1 REVERT JUMPDEST DUP2 CALLDATALOAD PUSH8 0xFFFFFFFFFFFFFFFF DUP2 GT ISZERO PUSH2 0x83E JUMPI PUSH1 0x0 DUP1 REVERT JUMPDEST DUP3 ADD PUSH1 0x1F DUP2 ADD DUP5 SGT PUSH2 0x84F JUMPI PUSH1 0x0 DUP1 REVERT JUMPDEST DUP1 CALLDATALOAD PUSH8 0xFFFFFFFFFFFFFFFF DUP2 GT ISZERO PUSH2 0x869 JUMPI PUSH2 0x869 PUSH2 0x7FF JUMP JUMPDEST PUSH1 0x40 MLOAD PUSH1 0x1F DUP3 ADD PUSH1 0x1F NOT SWAP1 DUP2 AND PUSH1 0x3F ADD AND DUP2 ADD PUSH8 0xFFFFFFFFFFFFFFFF DUP2 GT DUP3 DUP3 LT OR ISZERO PUSH2 0x898 JUMPI PUSH2 0x898 PUSH2 0x7FF JUMP JUMPDEST PUSH1 0x40 MSTORE DUP2 DUP2 MSTORE DUP3 DUP3 ADD PUSH1 0x20 ADD DUP7 LT ISZERO PUSH2 0x8B0 JUMPI PUSH1 0x0 DUP1 REVERT JUMPDEST DUP2 PUSH1 0x20 DUP5 ADD PUSH1 0x20 DUP4 ADD CALLDATACOPY PUSH1 0x0 SWAP2 DUP2 ADD PUSH1 0x20 ADD SWAP2 SWAP1 SWAP2 MSTORE SWAP5 SWAP4 POP POP POP POP JUMP JUMPDEST PUSH1 0x0 DUP1 PUSH1 0x20 DUP4 DUP6 SUB SLT ISZERO PUSH2 0x8E1 JUMPI PUSH1 0x0 DUP1 REVERT JUMPDEST DUP3 CALLDATALOAD PUSH8 0xFFFFFFFFFFFFFFFF DUP2 GT ISZERO PUSH2 0x8F8 JUMPI PUSH1 0x0 DUP1 REVERT JUMPDEST PUSH2 0x904 DUP6 DUP3 DUP7 ADD PUSH2 0x621 JUMP JUMPDEST SWAP1 SWAP7 SWAP1 SWAP6 POP SWAP4 POP POP POP POP JUMP JUMPDEST DUP2 DUP4 DUP3 CALLDATACOPY PUSH1 0x0 SWAP2 ADD SWAP1 DUP2 MSTORE SWAP2 SWAP1 POP JUMP JUMPDEST PUSH4 0x4E487B71 PUSH1 0xE0 SHL PUSH1 0x0 MSTORE PUSH1 0x32 PUSH1 0x4 MSTORE PUSH1 0x24 PUSH1 0x0 REVERT JUMPDEST PUSH4 0x4E487B71 PUSH1 0xE0 SHL PUSH1 0x0 MSTORE PUSH1 0x11 PUSH1 0x4 MSTORE PUSH1 0x24 PUSH1 0x0 REVERT JUMPDEST DUP1 DUP3 ADD DUP1 DUP3 GT ISZERO PUSH2 0x95F JUMPI PUSH2 0x95F PUSH2 0x936 JUMP JUMPDEST SWAP3 SWAP2 POP POP JUMP JUMPDEST DUP2 DUP2 SUB DUP2 DUP2 GT ISZERO PUSH2 0x95F JUMPI PUSH2 0x95F PUSH2 0x936 JUMP JUMPDEST DUP1 CALLDATALOAD PUSH1 0x1 PUSH1 0x1 PUSH1 0xA0 SHL SUB DUP2 AND DUP2 EQ PUSH2 0x98F JUMPI PUSH1 0x0 DUP1 REVERT JUMPDEST SWAP2 SWAP1 POP JUMP JUMPDEST PUSH1 0x0 PUSH1 0x20 DUP3 DUP5 SUB SLT ISZERO PUSH2 0x9A6 JUMPI PUSH1 0x0 DUP1 REVERT JUMPDEST PUSH2 0x9AF DUP3 PUSH2 0x978 JUMP JUMPDEST SWAP4 SWAP3 POP POP POP JUMP JUMPDEST DUP2 DUP4 MSTORE DUP2 DUP2 PUSH1 0x20 DUP6 ADD CALLDATACOPY POP PUSH1 0x0 DUP3 DUP3 ADD PUSH1 0x20 SWAP1 DUP2 ADD SWAP2 SWAP1 SWAP2 MSTORE PUSH1 0x1F SWAP1 SWAP2 ADD PUSH1 0x1F NOT AND SWAP1 SWAP2 ADD ADD SWAP1 JUMP JUMPDEST PUSH1 0x80 DUP2 MSTORE PUSH1 0x0 PUSH2 0x9F3 PUSH1 0x80 DUP4 ADD DUP11 DUP13 PUSH2 0x9B6 JUMP JUMPDEST DUP3 DUP2 SUB PUSH1 0x20 DUP5 ADD MSTORE PUSH2 0xA06 DUP2 DUP10 DUP12 PUSH2 0x9B6 JUMP JUMPDEST DUP4 DUP2 SUB PUSH1 0x40 DUP6 ADD MSTORE DUP7 DUP2 MSTORE DUP8 SWAP2 POP PUSH1 0x20 ADD PUSH1 0x0 JUMPDEST DUP8 DUP2 LT ISZERO PUSH2 0xA48 JUMPI PUSH1 0x1 PUSH1 0x1 PUSH1 0xA0 SHL SUB PUSH2 0xA33 DUP5 PUSH2 0x978 JUMP JUMPDEST AND DUP3 MSTORE PUSH1 0x20 SWAP3 DUP4 ADD SWAP3 SWAP1 SWAP2 ADD SWAP1 PUSH1 0x1 ADD PUSH2 0xA1A JUMP JUMPDEST POP DUP4 DUP2 SUB PUSH1 0x60 DUP6 ADD MSTORE DUP5 DUP2 MSTORE PUSH1 0x1 PUSH1 0x1 PUSH1 0xFB SHL SUB DUP6 GT ISZERO PUSH2 0xA68 JUMPI PUSH1 0x0 DUP1 REVERT JUMPDEST DUP5 PUSH1 0x5 SHL SWAP2 POP DUP2 DUP7 PUSH1 0x20 DUP4 ADD CALLDATACOPY ADD PUSH1 0x20 ADD SWAP11 SWAP10 POP POP POP POP POP POP POP POP POP POP JUMP JUMPDEST PUSH1 0x60 DUP2 MSTORE PUSH1 0x0 PUSH2 0xA9B PUSH1 0x60 DUP4 ADD DUP8 DUP10 PUSH2 0x9B6 JUMP JUMPDEST DUP3 DUP2 SUB PUSH1 0x20 DUP5 ADD MSTORE PUSH2 0xAAE DUP2 DUP7 DUP9 PUSH2 0x9B6 JUMP JUMPDEST SWAP2 POP POP DUP3 PUSH1 0x40 DUP4 ADD MSTORE SWAP7 SWAP6 POP POP POP POP POP POP JUMP JUMPDEST PUSH1 0x20 DUP2 MSTORE PUSH1 0x0 PUSH2 0xAD5 PUSH1 0x20 DUP4 ADD DUP5 DUP7 PUSH2 0x9B6 JUMP JUMPDEST SWAP5 SWAP4 POP POP POP POP JUMP JUMPDEST PUSH1 0x40 DUP2 MSTORE PUSH1 0x0 PUSH2 0xAF1 PUSH1 0x40 DUP4 ADD DUP6 DUP8 PUSH2 0x9B6 JUMP JUMPDEST SWAP1 POP DUP3 PUSH1 0x20 DUP4 ADD MSTORE SWAP5 SWAP4 POP POP POP POP JUMP INVALID LOG2 PUSH5 0x6970667358 0x22 SLT KECCAK256 EXTCODECOPY 0xB7 0x2C CREATE2 DUP5 PUSH12 0xB0381F5C61CC31CA04DA3B14 0x4B XOR 0xD2 0xB7 EXTCODESIZE NOT 0x4C 0x1E 0xF8 SWAP2 PUSH30 0x228E3364736F6C634300081B003300000000000000000000000000000000 "},"methodIdentifiers":{"assignStakeToIssue(string,string,uint256)":"45df58ab","distributeStakeToResolvers(string,string,address[],uint256[])":"33a0cfbb","donateToRepository(string)":"bca40092","owner()":"8da5cb5b","registerRepository(string)":"bbb77628","repositories(string)":"b089e53a"}}}}}