{
  "_format": "hh-sol-artifact-1",
  "contractName": "GitHubStakeContract",
  "sourceName": "contracts/Contract.sol",
  "abi": [
    {
      "inputs": [],
      "stateMutability": "nonpayable",
      "type": "constructor"
    },
    {
      "anonymous": false,
      "inputs": [
        {
          "indexed": false,
          "internalType": "string",
          "name": "repoName",
          "type": "string"
        },
        {
          "indexed": false,
          "internalType": "uint256",
          "name": "amount",
          "type": "uint256"
        }
      ],
      "name": "DonationReceived",
      "type": "event"
    },
    {
      "anonymous": false,
      "inputs": [
        {
          "indexed": false,
          "internalType": "string",
          "name": "repoName",
          "type": "string"
        }
      ],
      "name": "RepositoryRegistered",
      "type": "event"
    },
    {
      "anonymous": false,
      "inputs": [
        {
          "indexed": false,
          "internalType": "string",
          "name": "repoName",
          "type": "string"
        },
        {
          "indexed": false,
          "internalType": "string",
          "name": "issueName",
          "type": "string"
        },
        {
          "indexed": false,
          "internalType": "uint256",
          "name": "amount",
          "type": "uint256"
        }
      ],
      "name": "StakeAssigned",
      "type": "event"
    },
    {
      "anonymous": false,
      "inputs": [
        {
          "indexed": false,
          "internalType": "string",
          "name": "repoName",
          "type": "string"
        },
        {
          "indexed": false,
          "internalType": "string",
          "name": "issueName",
          "type": "string"
        },
        {
          "indexed": false,
          "internalType": "address[]",
          "name": "resolvers",
          "type": "address[]"
        },
        {
          "indexed": false,
          "internalType": "uint256[]",
          "name": "distributions",
          "type": "uint256[]"
        }
      ],
      "name": "StakeDistributed",
      "type": "event"
    },
    {
      "inputs": [
        {
          "internalType": "string",
          "name": "repoName",
          "type": "string"
        },
        {
          "internalType": "string",
          "name": "issueName",
          "type": "string"
        },
        {
          "internalType": "uint256",
          "name": "amount",
          "type": "uint256"
        }
      ],
      "name": "assignStakeToIssue",
      "outputs": [],
      "stateMutability": "nonpayable",
      "type": "function"
    },
    {
      "inputs": [
        {
          "internalType": "string",
          "name": "repoName",
          "type": "string"
        },
        {
          "internalType": "string",
          "name": "issueName",
          "type": "string"
        },
        {
          "internalType": "address[]",
          "name": "resolvers",
          "type": "address[]"
        },
        {
          "internalType": "uint256[]",
          "name": "distributions",
          "type": "uint256[]"
        }
      ],
      "name": "distributeStakeToResolvers",
      "outputs": [],
      "stateMutability": "nonpayable",
      "type": "function"
    },
    {
      "inputs": [
        {
          "internalType": "string",
          "name": "repoName",
          "type": "string"
        }
      ],
      "name": "donateToRepository",
      "outputs": [],
      "stateMutability": "payable",
      "type": "function"
    },
    {
      "inputs": [],
      "name": "owner",
      "outputs": [
        {
          "internalType": "address",
          "name": "",
          "type": "address"
        }
      ],
      "stateMutability": "view",
      "type": "function"
    },
    {
      "inputs": [
        {
          "internalType": "string",
          "name": "repoName",
          "type": "string"
        }
      ],
      "name": "registerRepository",
      "outputs": [],
      "stateMutability": "nonpayable",
      "type": "function"
    },
    {
      "inputs": [
        {
          "internalType": "string",
          "name": "",
          "type": "string"
        }
      ],
      "name": "repositories",
      "outputs": [
        {
          "internalType": "uint256",
          "name": "totalStake",
          "type": "uint256"
        }
      ],
      "stateMutability": "view",
      "type": "function"
    },
    {
      "stateMutability": "payable",
      "type": "receive"
    }
  ],
  "bytecode": "0x6080604052348015600f57600080fd5b50600080546001600160a01b03191633179055610b37806100316000396000f3fe6080604052600436106100595760003560e01c806333a0cfbb1461006557806345df58ab146100875780638da5cb5b146100a7578063b089e53a146100e4578063bbb776281461012a578063bca400921461014a57600080fd5b3661006057005b600080fd5b34801561007157600080fd5b506100856100803660046106af565b61015d565b005b34801561009357600080fd5b506100856100a2366004610786565b6103bd565b3480156100b357600080fd5b506000546100c7906001600160a01b031681565b6040516001600160a01b0390911681526020015b60405180910390f35b3480156100f057600080fd5b5061011c6100ff366004610815565b805160208183018101805160018252928201919093012091525481565b6040519081526020016100db565b34801561013657600080fd5b506100856101453660046108ce565b61047b565b6100856101583660046108ce565b61054f565b8281146101c55760405162461bcd60e51b815260206004820152602b60248201527f5265736f6c7665727320616e6420646973747269627574696f6e73206c656e6760448201526a0e8d040dad2e6dac2e8c6d60ab1b60648201526084015b60405180910390fd5b6000600189896040516101d9929190610910565b9081526020016040518091039020905060008160010188886040516101ff929190610910565b90815260200160405180910390205490506000805b8481101561024a5785858281811061022e5761022e610920565b9050602002013582610240919061094c565b9150600101610214565b50818111156102a75760405162461bcd60e51b815260206004820152602360248201527f446973747269627574696f6e20657863656564732061737369676e6564207374604482015262616b6560e81b60648201526084016101bc565b80836001018a8a6040516102bc929190610910565b908152602001604051809103902060008282546102d99190610965565b90915550600090505b8681101561036a578787828181106102fc576102fc610920565b90506020020160208101906103119190610994565b6001600160a01b03166108fc87878481811061032f5761032f610920565b905060200201359081150290604051600060405180830381858888f19350505050158015610361573d6000803e3d6000fd5b506001016102e2565b507f9f54e0bb5528320c9f02b3669a18f01b27a6b237a6f321c4744026b8cee5f9e58b8b8b8b8b8b8b8b6040516103a89897969594939291906109df565b60405180910390a15050505050505050505050565b6000600186866040516103d1929190610910565b90815260200160405180910390209050818160000160008282546103f59190610965565b9250508190555081816001018585604051610411929190610910565b9081526020016040518091039020600082825461042e919061094c565b90915550506040517ffff40a3c61bd1f3c8e34dbe7028c5404a7f49ead6445a4c92865d2bfdbf961dd9061046b9088908890889088908890610a87565b60405180910390a1505050505050565b6001828260405161048d929190610910565b90815260405190819003602001902054156104ea5760405162461bcd60e51b815260206004820152601d60248201527f5265706f7369746f727920616c7265616479207265676973746572656400000060448201526064016101bc565b6000600183836040516104fe929190610910565b9081526040519081900360200181206000815591507f13ba76422d4746395f788849383f7e7074514babf446c4291eee6c86ce55caf6906105429085908590610ac1565b60405180910390a1505050565b600034116105aa5760405162461bcd60e51b815260206004820152602260248201527f446f6e6174696f6e206d7573742062652067726561746572207468616e207a65604482015261726f60f01b60648201526084016101bc565b34600183836040516105bd929190610910565b908152602001604051809103902060000160008282546105dd919061094c565b90915550506040517ef79f60084fd2b2fc97daffa19b748a4dec75b1c281bac18ef320d90de1db9d9061061590849084903490610add565b60405180910390a15050565b60008083601f84011261063357600080fd5b50813567ffffffffffffffff81111561064b57600080fd5b60208301915083602082850101111561066357600080fd5b9250929050565b60008083601f84011261067c57600080fd5b50813567ffffffffffffffff81111561069457600080fd5b6020830191508360208260051b850101111561066357600080fd5b6000806000806000806000806080898b0312156106cb57600080fd5b883567ffffffffffffffff8111156106e257600080fd5b6106ee8b828c01610621565b909950975050602089013567ffffffffffffffff81111561070e57600080fd5b61071a8b828c01610621565b909750955050604089013567ffffffffffffffff81111561073a57600080fd5b6107468b828c0161066a565b909550935050606089013567ffffffffffffffff81111561076657600080fd5b6107728b828c0161066a565b999c989b5096995094979396929594505050565b60008060008060006060868803121561079e57600080fd5b853567ffffffffffffffff8111156107b557600080fd5b6107c188828901610621565b909650945050602086013567ffffffffffffffff8111156107e157600080fd5b6107ed88828901610621565b96999598509660400135949350505050565b634e487b7160e01b600052604160045260246000fd5b60006020828403121561082757600080fd5b813567ffffffffffffffff81111561083e57600080fd5b8201601f8101841361084f57600080fd5b803567ffffffffffffffff811115610869576108696107ff565b604051601f8201601f19908116603f0116810167ffffffffffffffff81118282101715610898576108986107ff565b6040528181528282016020018610156108b057600080fd5b81602084016020830137600091810160200191909152949350505050565b600080602083850312156108e157600080fd5b823567ffffffffffffffff8111156108f857600080fd5b61090485828601610621565b90969095509350505050565b8183823760009101908152919050565b634e487b7160e01b600052603260045260246000fd5b634e487b7160e01b600052601160045260246000fd5b8082018082111561095f5761095f610936565b92915050565b8181038181111561095f5761095f610936565b80356001600160a01b038116811461098f57600080fd5b919050565b6000602082840312156109a657600080fd5b6109af82610978565b9392505050565b81835281816020850137506000828201602090810191909152601f909101601f19169091010190565b6080815260006109f3608083018a8c6109b6565b8281036020840152610a0681898b6109b6565b838103604085015286815287915060200160005b87811015610a48576001600160a01b03610a3384610978565b16825260209283019290910190600101610a1a565b5083810360608501528481526001600160fb1b03851115610a6857600080fd5b8460051b915081866020830137016020019a9950505050505050505050565b606081526000610a9b6060830187896109b6565b8281036020840152610aae8186886109b6565b9150508260408301529695505050505050565b602081526000610ad56020830184866109b6565b949350505050565b604081526000610af16040830185876109b6565b905082602083015294935050505056fea26469706673582212203cb72cf5846bb0381f5c61cc31ca04da3b144b18d2b73b194c1ef8917d228e3364736f6c634300081b0033",
  "linkReferences": {},
  "deployedLinkReferences": {}
}